{
  "contractName": "HashStorage",
  "abi": [
    {
      "anonymous": false,
      "inputs": [
        {
          "indexed": true,
          "internalType": "string",
          "name": "id",
          "type": "string"
        },
        {
          "indexed": false,
          "internalType": "bytes32",
          "name": "hash",
          "type": "bytes32"
        },
        {
          "indexed": false,
          "internalType": "string",
          "name": "cid",
          "type": "string"
        }
      ],
      "name": "HashStored",
      "type": "event"
    },
    {
      "constant": false,
      "inputs": [
        {
          "internalType": "string",
          "name": "id",
          "type": "string"
        },
        {
          "internalType": "string",
          "name": "_hash",
          "type": "string"
        },
        {
          "internalType": "string",
          "name": "_cid",
          "type": "string"
        }
      ],
      "name": "storeHash",
      "outputs": [],
      "payable": false,
      "stateMutability": "nonpayable",
      "type": "function"
    },
    {
      "constant": true,
      "inputs": [
        {
          "internalType": "string",
          "name": "id",
          "type": "string"
        }
      ],
      "name": "getCids",
      "outputs": [
        {
          "internalType": "string[]",
          "name": "",
          "type": "string[]"
        }
      ],
      "payable": false,
      "stateMutability": "view",
      "type": "function"
    },
    {
      "constant": true,
      "inputs": [
        {
          "internalType": "string",
          "name": "id",
          "type": "string"
        },
        {
          "internalType": "string",
          "name": "_hash",
          "type": "string"
        }
      ],
      "name": "verifyHash",
      "outputs": [
        {
          "internalType": "bool",
          "name": "",
          "type": "bool"
        }
      ],
      "payable": false,
      "stateMutability": "view",
      "type": "function"
    }
  ],
  "bytecode": "0x608060405234801561001057600080fd5b50610eb4806100206000396000f3fe608060405234801561001057600080fd5b50600436106100415760003560e01c8063138bbbfd14610046578063258b85d414610062578063f1acfbc514610092575b600080fd5b610060600480360361005b9190810190610879565b6100c2565b005b61007c6004803603610077919081019061080d565b6102f8565b6040516100899190610c1b565b60405180910390f35b6100ac60048036036100a791908101906107cc565b6104e6565b6040516100b99190610bf9565b60405180910390f35b6000835111610106576040517f08c379a00000000000000000000000000000000000000000000000000000000081526004016100fd90610cc6565b60405180910390fd5b600082511161014a576040517f08c379a000000000000000000000000000000000000000000000000000000000815260040161014190610c86565b60405180910390fd5b600081511161018e576040517f08c379a000000000000000000000000000000000000000000000000000000000815260040161018590610c66565b60405180910390fd5b60006002836040516020016101a39190610be2565b6040516020818303038152906040526040516101bf9190610bcb565b602060405180830381855afa1580156101dc573d6000803e3d6000fd5b5050506040513d601f19601f820116820180604052506101ff91908101906107a3565b90506000846040516102119190610be2565b90815260200160405180910390208190806001815401808255809150509060018203906000526020600020016000909192909190915055506001846040516102599190610be2565b90815260200160405180910390208290806001815401808255809150509060018203906000526020600020016000909192909190915090805190602001906102a2929190610695565b5050836040516102b29190610be2565b60405180910390207e9b65cdb83af754e4b8cb3016a6bd46f1d13aca66c828ba73c5d816c43529ab82846040516102ea929190610c36565b60405180910390a250505050565b60008083511161033d576040517f08c379a000000000000000000000000000000000000000000000000000000000815260040161033490610cc6565b60405180910390fd5b6000825111610381576040517f08c379a000000000000000000000000000000000000000000000000000000000815260040161037890610c86565b60405180910390fd5b600080846040516103929190610be2565b908152602001604051809103902080549050116103e4576040517f08c379a00000000000000000000000000000000000000000000000000000000081526004016103db90610ca6565b60405180910390fd5b60006002836040516020016103f99190610be2565b6040516020818303038152906040526040516104159190610bcb565b602060405180830381855afa158015610432573d6000803e3d6000fd5b5050506040513d601f19601f8201168201806040525061045591908101906107a3565b905060008090505b60008560405161046d9190610be2565b9081526020016040518091039020805490508110156104d957816000866040516104979190610be2565b908152602001604051809103902082815481106104b057fe5b906000526020600020015414156104cc576001925050506104e0565b808060010191505061045d565b5060009150505b92915050565b6060600082511161052c576040517f08c379a000000000000000000000000000000000000000000000000000000000815260040161052390610cc6565b60405180910390fd5b600060018360405161053e9190610be2565b90815260200160405180910390208054905011610590576040517f08c379a000000000000000000000000000000000000000000000000000000000815260040161058790610ce6565b60405180910390fd5b6001826040516105a09190610be2565b9081526020016040518091039020805480602002602001604051908101604052809291908181526020016000905b8282101561068a578382906000526020600020018054600181600116156101000203166002900480601f0160208091040260200160405190810160405280929190818152602001828054600181600116156101000203166002900480156106765780601f1061064b57610100808354040283529160200191610676565b820191906000526020600020905b81548152906001019060200180831161065957829003601f168201915b5050505050815260200190600101906105ce565b505050509050919050565b828054600181600116156101000203166002900490600052602060002090601f016020900481019282601f106106d657805160ff1916838001178555610704565b82800160010185558215610704579182015b828111156107035782518255916020019190600101906106e8565b5b5090506107119190610715565b5090565b61073791905b8082111561073357600081600090555060010161071b565b5090565b90565b60008151905061074981610e5a565b92915050565b600082601f83011261076057600080fd5b813561077361076e82610d33565b610d06565b9150808252602083016020830185838301111561078f57600080fd5b61079a838284610e07565b50505092915050565b6000602082840312156107b557600080fd5b60006107c38482850161073a565b91505092915050565b6000602082840312156107de57600080fd5b600082013567ffffffffffffffff8111156107f857600080fd5b6108048482850161074f565b91505092915050565b6000806040838503121561082057600080fd5b600083013567ffffffffffffffff81111561083a57600080fd5b6108468582860161074f565b925050602083013567ffffffffffffffff81111561086357600080fd5b61086f8582860161074f565b9150509250929050565b60008060006060848603121561088e57600080fd5b600084013567ffffffffffffffff8111156108a857600080fd5b6108b48682870161074f565b935050602084013567ffffffffffffffff8111156108d157600080fd5b6108dd8682870161074f565b925050604084013567ffffffffffffffff8111156108fa57600080fd5b6109068682870161074f565b9150509250925092565b600061091c8383610a52565b905092915050565b600061092f82610d6f565b6109398185610da8565b93508360208202850161094b85610d5f565b8060005b8581101561098757848403895281516109688582610910565b945061097383610d9b565b925060208a0199505060018101905061094f565b50829750879550505050505092915050565b6109a281610df1565b82525050565b6109b181610dfd565b82525050565b60006109c282610d7a565b6109cc8185610db9565b93506109dc818560208601610e16565b80840191505092915050565b60006109f382610d90565b6109fd8185610dd5565b9350610a0d818560208601610e16565b610a1681610e49565b840191505092915050565b6000610a2c82610d90565b610a368185610de6565b9350610a46818560208601610e16565b80840191505092915050565b6000610a5d82610d85565b610a678185610dc4565b9350610a77818560208601610e16565b610a8081610e49565b840191505092915050565b6000610a98601383610dd5565b91507f4349442063616e6e6f7420626520656d707479000000000000000000000000006000830152602082019050919050565b6000610ad8601483610dd5565b91507f486173682063616e6e6f7420626520656d7074790000000000000000000000006000830152602082019050919050565b6000610b18602083610dd5565b91507f4e6f2068617368657320666f756e6420666f722074686520676976656e2049446000830152602082019050919050565b6000610b58601283610dd5565b91507f49442063616e6e6f7420626520656d70747900000000000000000000000000006000830152602082019050919050565b6000610b98601e83610dd5565b91507f4e6f204349447320666f756e6420666f722074686520676976656e20494400006000830152602082019050919050565b6000610bd782846109b7565b915081905092915050565b6000610bee8284610a21565b915081905092915050565b60006020820190508181036000830152610c138184610924565b905092915050565b6000602082019050610c306000830184610999565b92915050565b6000604082019050610c4b60008301856109a8565b8181036020830152610c5d81846109e8565b90509392505050565b60006020820190508181036000830152610c7f81610a8b565b9050919050565b60006020820190508181036000830152610c9f81610acb565b9050919050565b60006020820190508181036000830152610cbf81610b0b565b9050919050565b60006020820190508181036000830152610cdf81610b4b565b9050919050565b60006020820190508181036000830152610cff81610b8b565b9050919050565b6000604051905081810181811067ffffffffffffffff82111715610d2957600080fd5b8060405250919050565b600067ffffffffffffffff821115610d4a57600080fd5b601f19601f8301169050602081019050919050565b6000819050602082019050919050565b600081519050919050565b600081519050919050565b600081519050919050565b600081519050919050565b6000602082019050919050565b600082825260208201905092915050565b600081905092915050565b600082825260208201905092915050565b600082825260208201905092915050565b600081905092915050565b60008115159050919050565b6000819050919050565b82818337600083830152505050565b60005b83811015610e34578082015181840152602081019050610e19565b83811115610e43576000848401525b50505050565b6000601f19601f8301169050919050565b610e6381610dfd565b8114610e6e57600080fd5b5056fea365627a7a72315820700f5349c9091211603549c89ef3c3a96207fba9b76c1d0a5f0b0de0934f6db76c6578706572696d656e74616cf564736f6c634300050b0040",
  "source": "// SPDX-License-Identifier: MIT\r\npragma solidity ^0.5.0;\r\npragma experimental ABIEncoderV2;\r\ncontract HashStorage {\r\n    // Mapping to store hashes and CIDs against unique IDs\r\n    mapping(string => bytes32[]) private hashStorage;\r\n    mapping(string => string[]) private cidStorage;\r\n\r\n    // Event to log the hash and CID being stored\r\n    event HashStored(string indexed id, bytes32 hash, string cid);\r\n\r\n    // Function to store a new hash and CID against a unique ID\r\n    function storeHash(string memory id, string memory _hash, string memory _cid) public {\r\n        require(bytes(id).length > 0, \"ID cannot be empty\");\r\n        require(bytes(_hash).length > 0, \"Hash cannot be empty\");\r\n        require(bytes(_cid).length > 0, \"CID cannot be empty\");\r\n\r\n        // Convert the hash to bytes32 and store it\r\n        bytes32 hashBytes = sha256(abi.encodePacked(_hash));\r\n        hashStorage[id].push(hashBytes);\r\n        cidStorage[id].push(_cid);\r\n\r\n        // Emit an event with the ID, stored hash, and CID\r\n        emit HashStored(id, hashBytes, _cid);\r\n    }\r\n\r\n    // Function to retrieve only CIDs for a given ID\r\n    function getCids(string memory id) public view returns (string[] memory) {\r\n        require(bytes(id).length > 0, \"ID cannot be empty\");\r\n        require(cidStorage[id].length > 0, \"No CIDs found for the given ID\");\r\n\r\n        return cidStorage[id];\r\n    }\r\n\r\n    // Function to verify if a given hash matches the stored hash for a given ID\r\n    function verifyHash(string memory id, string memory _hash) public view returns (bool) {\r\n        require(bytes(id).length > 0, \"ID cannot be empty\");\r\n        require(bytes(_hash).length > 0, \"Hash cannot be empty\");\r\n        require(hashStorage[id].length > 0, \"No hashes found for the given ID\");\r\n\r\n        bytes32 hashBytes = sha256(abi.encodePacked(_hash));\r\n        for (uint256 i = 0; i < hashStorage[id].length; i++) {\r\n            if (hashStorage[id][i] == hashBytes) {\r\n                return true; // Hash matches\r\n            }\r\n        }\r\n\r\n        return false; // No match found\r\n    }\r\n}\r\n",
  "sourcePath": "C:\\Users\\achyu\\Desktop\\blockchain-hash-storage\\contracts\\HashStorage.sol",
  "compiler": {
    "name": "solc",
    "version": "0.5.11+commit.c082d0b4.Emscripten.clang"
  },
  "schemaVersion": "3.4.16",
  "updatedAt": "2024-12-22T18:39:22.437Z",
  "networkType": "ethereum",
  "devdoc": {
    "methods": {}
  },
  "userdoc": {
    "methods": {}
  }
}